{
  "_format": "hh-sol-artifact-1",
  "contractName": "Registry",
  "sourceName": "contracts/Registry.sol",
  "abi": [
    {
      "inputs": [
        {
          "internalType": "uint256",
          "name": "initialSupply",
          "type": "uint256"
        }
      ],
      "stateMutability": "nonpayable",
      "type": "constructor"
    },
    {
      "inputs": [
        {
          "internalType": "address",
          "name": "spender",
          "type": "address"
        },
        {
          "internalType": "uint256",
          "name": "allowance",
          "type": "uint256"
        },
        {
          "internalType": "uint256",
          "name": "needed",
          "type": "uint256"
        }
      ],
      "name": "ERC20InsufficientAllowance",
      "type": "error"
    },
    {
      "inputs": [
        {
          "internalType": "address",
          "name": "sender",
          "type": "address"
        },
        {
          "internalType": "uint256",
          "name": "balance",
          "type": "uint256"
        },
        {
          "internalType": "uint256",
          "name": "needed",
          "type": "uint256"
        }
      ],
      "name": "ERC20InsufficientBalance",
      "type": "error"
    },
    {
      "inputs": [
        {
          "internalType": "address",
          "name": "approver",
          "type": "address"
        }
      ],
      "name": "ERC20InvalidApprover",
      "type": "error"
    },
    {
      "inputs": [
        {
          "internalType": "address",
          "name": "receiver",
          "type": "address"
        }
      ],
      "name": "ERC20InvalidReceiver",
      "type": "error"
    },
    {
      "inputs": [
        {
          "internalType": "address",
          "name": "sender",
          "type": "address"
        }
      ],
      "name": "ERC20InvalidSender",
      "type": "error"
    },
    {
      "inputs": [
        {
          "internalType": "address",
          "name": "spender",
          "type": "address"
        }
      ],
      "name": "ERC20InvalidSpender",
      "type": "error"
    },
    {
      "inputs": [],
      "name": "InvalidAge",
      "type": "error"
    },
    {
      "inputs": [],
      "name": "NotOwner",
      "type": "error"
    },
    {
      "inputs": [],
      "name": "ReceiverNotAllowed",
      "type": "error"
    },
    {
      "inputs": [],
      "name": "SenderNotAllowed",
      "type": "error"
    },
    {
      "anonymous": false,
      "inputs": [
        {
          "indexed": true,
          "internalType": "address",
          "name": "owner",
          "type": "address"
        },
        {
          "indexed": true,
          "internalType": "address",
          "name": "spender",
          "type": "address"
        },
        {
          "indexed": false,
          "internalType": "uint256",
          "name": "value",
          "type": "uint256"
        }
      ],
      "name": "Approval",
      "type": "event"
    },
    {
      "anonymous": false,
      "inputs": [
        {
          "indexed": true,
          "internalType": "address",
          "name": "from",
          "type": "address"
        },
        {
          "indexed": true,
          "internalType": "address",
          "name": "to",
          "type": "address"
        },
        {
          "indexed": false,
          "internalType": "uint256",
          "name": "value",
          "type": "uint256"
        }
      ],
      "name": "Transfer",
      "type": "event"
    },
    {
      "anonymous": false,
      "inputs": [
        {
          "indexed": true,
          "internalType": "address",
          "name": "user",
          "type": "address"
        },
        {
          "indexed": false,
          "internalType": "string",
          "name": "name",
          "type": "string"
        },
        {
          "indexed": false,
          "internalType": "uint256",
          "name": "age",
          "type": "uint256"
        },
        {
          "indexed": false,
          "internalType": "string",
          "name": "city",
          "type": "string"
        },
        {
          "indexed": false,
          "internalType": "bool",
          "name": "status",
          "type": "bool"
        }
      ],
      "name": "UserRegistered",
      "type": "event"
    },
    {
      "anonymous": false,
      "inputs": [
        {
          "indexed": true,
          "internalType": "address",
          "name": "user",
          "type": "address"
        },
        {
          "indexed": false,
          "internalType": "bool",
          "name": "status",
          "type": "bool"
        }
      ],
      "name": "UserStatusUpdated",
      "type": "event"
    },
    {
      "inputs": [
        {
          "internalType": "address",
          "name": "owner",
          "type": "address"
        },
        {
          "internalType": "address",
          "name": "spender",
          "type": "address"
        }
      ],
      "name": "allowance",
      "outputs": [
        {
          "internalType": "uint256",
          "name": "",
          "type": "uint256"
        }
      ],
      "stateMutability": "view",
      "type": "function"
    },
    {
      "inputs": [
        {
          "internalType": "address",
          "name": "spender",
          "type": "address"
        },
        {
          "internalType": "uint256",
          "name": "value",
          "type": "uint256"
        }
      ],
      "name": "approve",
      "outputs": [
        {
          "internalType": "bool",
          "name": "",
          "type": "bool"
        }
      ],
      "stateMutability": "nonpayable",
      "type": "function"
    },
    {
      "inputs": [
        {
          "internalType": "address",
          "name": "account",
          "type": "address"
        }
      ],
      "name": "balanceOf",
      "outputs": [
        {
          "internalType": "uint256",
          "name": "",
          "type": "uint256"
        }
      ],
      "stateMutability": "view",
      "type": "function"
    },
    {
      "inputs": [
        {
          "internalType": "address",
          "name": "userAddr",
          "type": "address"
        },
        {
          "internalType": "bool",
          "name": "status",
          "type": "bool"
        }
      ],
      "name": "changeUserStatus",
      "outputs": [],
      "stateMutability": "nonpayable",
      "type": "function"
    },
    {
      "inputs": [],
      "name": "decimals",
      "outputs": [
        {
          "internalType": "uint8",
          "name": "",
          "type": "uint8"
        }
      ],
      "stateMutability": "view",
      "type": "function"
    },
    {
      "inputs": [],
      "name": "name",
      "outputs": [
        {
          "internalType": "string",
          "name": "",
          "type": "string"
        }
      ],
      "stateMutability": "view",
      "type": "function"
    },
    {
      "inputs": [],
      "name": "owner",
      "outputs": [
        {
          "internalType": "address",
          "name": "",
          "type": "address"
        }
      ],
      "stateMutability": "view",
      "type": "function"
    },
    {
      "inputs": [],
      "name": "symbol",
      "outputs": [
        {
          "internalType": "string",
          "name": "",
          "type": "string"
        }
      ],
      "stateMutability": "view",
      "type": "function"
    },
    {
      "inputs": [],
      "name": "totalSupply",
      "outputs": [
        {
          "internalType": "uint256",
          "name": "",
          "type": "uint256"
        }
      ],
      "stateMutability": "view",
      "type": "function"
    },
    {
      "inputs": [
        {
          "internalType": "address",
          "name": "to",
          "type": "address"
        },
        {
          "internalType": "uint256",
          "name": "value",
          "type": "uint256"
        }
      ],
      "name": "transfer",
      "outputs": [
        {
          "internalType": "bool",
          "name": "",
          "type": "bool"
        }
      ],
      "stateMutability": "nonpayable",
      "type": "function"
    },
    {
      "inputs": [
        {
          "internalType": "address",
          "name": "from",
          "type": "address"
        },
        {
          "internalType": "address",
          "name": "to",
          "type": "address"
        },
        {
          "internalType": "uint256",
          "name": "value",
          "type": "uint256"
        }
      ],
      "name": "transferFrom",
      "outputs": [
        {
          "internalType": "bool",
          "name": "",
          "type": "bool"
        }
      ],
      "stateMutability": "nonpayable",
      "type": "function"
    },
    {
      "inputs": [
        {
          "internalType": "string",
          "name": "name",
          "type": "string"
        },
        {
          "internalType": "uint256",
          "name": "age",
          "type": "uint256"
        },
        {
          "internalType": "string",
          "name": "city",
          "type": "string"
        },
        {
          "internalType": "bool",
          "name": "status",
          "type": "bool"
        }
      ],
      "name": "userRegister",
      "outputs": [
        {
          "internalType": "bool",
          "name": "",
          "type": "bool"
        }
      ],
      "stateMutability": "nonpayable",
      "type": "function"
    },
    {
      "inputs": [
        {
          "internalType": "address",
          "name": "",
          "type": "address"
        }
      ],
      "name": "users",
      "outputs": [
        {
          "internalType": "string",
          "name": "name",
          "type": "string"
        },
        {
          "internalType": "uint256",
          "name": "age",
          "type": "uint256"
        },
        {
          "internalType": "string",
          "name": "city",
          "type": "string"
        },
        {
          "internalType": "bool",
          "name": "status",
          "type": "bool"
        },
        {
          "internalType": "bool",
          "name": "exists",
          "type": "bool"
        }
      ],
      "stateMutability": "view",
      "type": "function"
    }
  ],
  "bytecode": "0x60a06040523480156200001157600080fd5b50604051620015f4380380620015f483398101604081905262000034916200036d565b604051806040016040528060098152602001683a32b9ba3a37b5b2b760b91b81525060405180604001604052806002815260200161151560f21b81525081600390816200008291906200042b565b5060046200009182826200042b565b5050336080819052620000bf9150620000ad6012600a6200060c565b620000b9908462000624565b620000c6565b5062000654565b6001600160a01b038216620000f65760405163ec442f0560e01b8152600060048201526024015b60405180910390fd5b620001046000838362000108565b5050565b6001600160a01b03831615806200012657506001600160a01b038216155b156200013e57620001398383836200023a565b505050565b6080516001600160a01b0316836001600160a01b031614620001c6576001600160a01b038316600090815260056020526040902060030154610100900460ff161580620001a757506001600160a01b03831660009081526005602052604090206003015460ff16155b15620001c6576040516323dada5360e01b815260040160405180910390fd5b6001600160a01b038216600090815260056020526040902060030154610100900460ff1615806200021357506001600160a01b03821660009081526005602052604090206003015460ff16155b1562000232576040516311a5c90960e21b815260040160405180910390fd5b620001398383835b6001600160a01b038316620002695780600260008282546200025d91906200063e565b90915550620002dd9050565b6001600160a01b03831660009081526020819052604090205481811015620002be5760405163391434e360e21b81526001600160a01b03851660048201526024810182905260448101839052606401620000ed565b6001600160a01b03841660009081526020819052604090209082900390555b6001600160a01b038216620002fb576002805482900390556200031a565b6001600160a01b03821660009081526020819052604090208054820190555b816001600160a01b0316836001600160a01b03167fddf252ad1be2c89b69c2b068fc378daa952ba7f163c4a11628f55a4df523b3ef836040516200036091815260200190565b60405180910390a3505050565b6000602082840312156200038057600080fd5b5051919050565b634e487b7160e01b600052604160045260246000fd5b600181811c90821680620003b257607f821691505b602082108103620003d357634e487b7160e01b600052602260045260246000fd5b50919050565b601f8211156200013957600081815260208120601f850160051c81016020861015620004025750805b601f850160051c820191505b8181101562000423578281556001016200040e565b505050505050565b81516001600160401b0381111562000447576200044762000387565b6200045f816200045884546200039d565b84620003d9565b602080601f8311600181146200049757600084156200047e5750858301515b600019600386901b1c1916600185901b17855562000423565b600085815260208120601f198616915b82811015620004c857888601518255948401946001909101908401620004a7565b5085821015620004e75787850151600019600388901b60f8161c191681555b5050505050600190811b01905550565b634e487b7160e01b600052601160045260246000fd5b600181815b808511156200054e578160001904821115620005325762000532620004f7565b808516156200054057918102915b93841c939080029062000512565b509250929050565b600082620005675750600162000606565b81620005765750600062000606565b81600181146200058f57600281146200059a57620005ba565b600191505062000606565b60ff841115620005ae57620005ae620004f7565b50506001821b62000606565b5060208310610133831016604e8410600b8410161715620005df575081810a62000606565b620005eb83836200050d565b8060001904821115620006025762000602620004f7565b0290505b92915050565b60006200061d60ff84168362000556565b9392505050565b8082028115828204841417620006065762000606620004f7565b80820180821115620006065762000606620004f7565b608051610f766200067e6000396000818161019f0152818161049e01526108980152610f766000f3fe608060405234801561001057600080fd5b50600436106100cf5760003560e01c806336a1fb5f1161008c57806395d89b411161006657806395d89b41146101d9578063a87430ba146101e1578063a9059cbb14610205578063dd62ed3e1461021857600080fd5b806336a1fb5f1461015c57806370a08231146101715780638da5cb5b1461019a57600080fd5b806306fdde03146100d4578063095ea7b3146100f257806318160ddd1461011557806323b872dd14610127578063313ce5671461013a57806336a0d57714610149575b600080fd5b6100dc610251565b6040516100e99190610b1a565b60405180910390f35b610105610100366004610b50565b6102e3565b60405190151581526020016100e9565b6002545b6040519081526020016100e9565b610105610135366004610b7a565b6102fd565b604051601281526020016100e9565b610105610157366004610c0f565b610321565b61016f61016a366004610c98565b610493565b005b61011961017f366004610ccb565b6001600160a01b031660009081526020819052604090205490565b6101c17f000000000000000000000000000000000000000000000000000000000000000081565b6040516001600160a01b0390911681526020016100e9565b6100dc61053e565b6101f46101ef366004610ccb565b61054d565b6040516100e9959493929190610ce6565b610105610213366004610b50565b610691565b610119610226366004610d2b565b6001600160a01b03918216600090815260016020908152604080832093909416825291909152205490565b60606003805461026090610d55565b80601f016020809104026020016040519081016040528092919081815260200182805461028c90610d55565b80156102d95780601f106102ae576101008083540402835291602001916102d9565b820191906000526020600020905b8154815290600101906020018083116102bc57829003601f168201915b5050505050905090565b6000336102f181858561069f565b60019150505b92915050565b60003361030b8582856106b1565b610316858585610735565b506001949350505050565b60006014851015610345576040516304530cb760e41b815260040160405180910390fd5b6040518060a0016040528088888080601f016020809104026020016040519081016040528093929190818152602001838380828437600092019190915250505090825250602080820188905260408051601f88018390048302810183018252878152920191908790879081908401838280828437600092018290525093855250505084151560208084019190915260016040938401523382526005905220815181906103f19082610df3565b5060208201516001820155604082015160028201906104109082610df3565b5060608201516003909101805460809093015115156101000261ff00199215159290921661ffff199093169290921717905560405133907f7b1f8bd68d8f277757dd40a3d2b3756f038a798788a48a9fa4ef9d188825485e9061047e908a908a908a908a908a908a90610edc565b60405180910390a25060019695505050505050565b336001600160a01b037f000000000000000000000000000000000000000000000000000000000000000016146104dc576040516330cd747160e01b815260040160405180910390fd5b6001600160a01b038216600081815260056020908152604091829020600301805460ff191685151590811790915591519182527ff13fbe1818f72d0dfe5450977aa00dcf1c06cae684e2a5dfaa3944b96eba2c7d910160405180910390a25050565b60606004805461026090610d55565b60056020526000908152604090208054819061056890610d55565b80601f016020809104026020016040519081016040528092919081815260200182805461059490610d55565b80156105e15780601f106105b6576101008083540402835291602001916105e1565b820191906000526020600020905b8154815290600101906020018083116105c457829003601f168201915b5050505050908060010154908060020180546105fc90610d55565b80601f016020809104026020016040519081016040528092919081815260200182805461062890610d55565b80156106755780601f1061064a57610100808354040283529160200191610675565b820191906000526020600020905b81548152906001019060200180831161065857829003601f168201915b5050506003909301549192505060ff8082169161010090041685565b6000336102f1818585610735565b6106ac8383836001610794565b505050565b6001600160a01b0383811660009081526001602090815260408083209386168352929052205460001981101561072f578181101561072057604051637dc7a0d960e11b81526001600160a01b038416600482015260248101829052604481018390526064015b60405180910390fd5b61072f84848484036000610794565b50505050565b6001600160a01b03831661075f57604051634b637e8f60e11b815260006004820152602401610717565b6001600160a01b0382166107895760405163ec442f0560e01b815260006004820152602401610717565b6106ac838383610869565b6001600160a01b0384166107be5760405163e602df0560e01b815260006004820152602401610717565b6001600160a01b0383166107e857604051634a1406b160e11b815260006004820152602401610717565b6001600160a01b038085166000908152600160209081526040808320938716835292905220829055801561072f57826001600160a01b0316846001600160a01b03167f8c5be1e5ebec7d5bd14f71427d1e84f3dd0314c0f7b2291e5b200ac8c7c3b9258460405161085b91815260200190565b60405180910390a350505050565b6001600160a01b038316158061088657506001600160a01b038216155b15610896576106ac8383836109aa565b7f00000000000000000000000000000000000000000000000000000000000000006001600160a01b0316836001600160a01b031614610939576001600160a01b038316600090815260056020526040902060030154610100900460ff16158061091b57506001600160a01b03831660009081526005602052604090206003015460ff16155b15610939576040516323dada5360e01b815260040160405180910390fd5b6001600160a01b038216600090815260056020526040902060030154610100900460ff16158061098557506001600160a01b03821660009081526005602052604090206003015460ff16155b156109a3576040516311a5c90960e21b815260040160405180910390fd5b6106ac8383835b6001600160a01b0383166109d55780600260008282546109ca9190610f1f565b90915550610a479050565b6001600160a01b03831660009081526020819052604090205481811015610a285760405163391434e360e21b81526001600160a01b03851660048201526024810182905260448101839052606401610717565b6001600160a01b03841660009081526020819052604090209082900390555b6001600160a01b038216610a6357600280548290039055610a82565b6001600160a01b03821660009081526020819052604090208054820190555b816001600160a01b0316836001600160a01b03167fddf252ad1be2c89b69c2b068fc378daa952ba7f163c4a11628f55a4df523b3ef83604051610ac791815260200190565b60405180910390a3505050565b6000815180845260005b81811015610afa57602081850181015186830182015201610ade565b506000602082860101526020601f19601f83011685010191505092915050565b602081526000610b2d6020830184610ad4565b9392505050565b80356001600160a01b0381168114610b4b57600080fd5b919050565b60008060408385031215610b6357600080fd5b610b6c83610b34565b946020939093013593505050565b600080600060608486031215610b8f57600080fd5b610b9884610b34565b9250610ba660208501610b34565b9150604084013590509250925092565b60008083601f840112610bc857600080fd5b50813567ffffffffffffffff811115610be057600080fd5b602083019150836020828501011115610bf857600080fd5b9250929050565b80358015158114610b4b57600080fd5b60008060008060008060808789031215610c2857600080fd5b863567ffffffffffffffff80821115610c4057600080fd5b610c4c8a838b01610bb6565b9098509650602089013595506040890135915080821115610c6c57600080fd5b50610c7989828a01610bb6565b9094509250610c8c905060608801610bff565b90509295509295509295565b60008060408385031215610cab57600080fd5b610cb483610b34565b9150610cc260208401610bff565b90509250929050565b600060208284031215610cdd57600080fd5b610b2d82610b34565b60a081526000610cf960a0830188610ad4565b8660208401528281036040840152610d118187610ad4565b941515606084015250509015156080909101529392505050565b60008060408385031215610d3e57600080fd5b610d4783610b34565b9150610cc260208401610b34565b600181811c90821680610d6957607f821691505b602082108103610d8957634e487b7160e01b600052602260045260246000fd5b50919050565b634e487b7160e01b600052604160045260246000fd5b601f8211156106ac57600081815260208120601f850160051c81016020861015610dcc5750805b601f850160051c820191505b81811015610deb57828155600101610dd8565b505050505050565b815167ffffffffffffffff811115610e0d57610e0d610d8f565b610e2181610e1b8454610d55565b84610da5565b602080601f831160018114610e565760008415610e3e5750858301515b600019600386901b1c1916600185901b178555610deb565b600085815260208120601f198616915b82811015610e8557888601518255948401946001909101908401610e66565b5085821015610ea35787850151600019600388901b60f8161c191681555b5050505050600190811b01905550565b81835281816020850137506000828201602090810191909152601f909101601f19169091010190565b608081526000610ef060808301888a610eb3565b8660208401528281036040840152610f09818688610eb3565b9150508215156060830152979650505050505050565b808201808211156102f757634e487b7160e01b600052601160045260246000fdfea26469706673582212200c35853c64a66b93b6732477b8e244bfd88252c039e1a1bfd93cdd4462164f3b64736f6c63430008140033",
  "linkReferences": {},
  "deployedLinkReferences": {}
}